:1000000089C00000A3C00000A1C000009FC0000084
:100010009DC000009BC0000099C0000097C0000078
:1000200095C0000093C000000C94BE0E0C948B0F82
:100030008DC000008BC0000089C0000087C0000098
:1000400085C0000083C0000081C000007FC00000A8
:100050007DC000007BC0000079C000000C94A109A5
:1000600075C0000073C0000071C000006FC00000C8
:100070006DC000006BC0000069C0000067C00000D8
:1000800065C0000063C0000061C000005FC00000E8
:100090005DC000005BC0000059C0000057C00000F8
:1000A00055C0000053C0000051C0000010034700BD
:1000B00070006900620055007300620000001603C2
:1000C000580079007000680072006F004C006100F9
:1000D0006200730000000403090409022700010103
:1000E00000C0320904000002FE03010007050302FC
:1000F00040000507058202400005000000000000E6
:10010000001201100100000008EB0365200100014E
:100110000203010011241FBECFEFDAE0DEBFCDBF26
:1001200011E0A0E0B1E0EAE9F2E202C005900D9230
:10013000AC31B107D9F721E0ACE1B1E001C01D92CB
:10014000AD3EB207E1F7E1D70C944B1159CF4FE523
:1001500050E0AFB7F89493E090937B018823B1F11E
:1001600087E490E090937D0180937C0180E590E0AE
:1001700090937F0180937E0189E490E090938101C8
:100180008093800182E490E09093830180938201C8
:100190005093850140938401809102016AE00E949E
:1001A0002011282F30E0205D3F4F309387012093AE
:1001B0008601892F90E0C0969093890180938801F1
:1001C00050938B0140938A0188E001C080E090E069
:1001D0006EE071E2282F290FE62FF0E070935700B0
:1001E000E49190FF03C0E295EF706F5FEF7030E035
:1001F0004E2F50E0EA3018F0495C5F4F02C0405D7E
:100200005F4FF901EE0FFF1FE458FE4F518340830B
:100210009F5F9431F9F68B5E880F80937A01AFBFB0
:100220000895982F80ED890F8A3008F080E02FE93B
:10023000290F263010F489EA890F2FEB290F263079
:1002400010F489EC890F089585E38A95F1F7000091
:100250008091750190917601A0917701B09178011C
:100260000097A105B10569F00197A109B109809333
:10027000750190937601A0937701B093780180E0A7
:10028000089581E008950E94061190916A0180917D
:100290006B01892B08950E94061190916B0180914A
:1002A0006A01892B08950E94AD0B91E08F3F11F4F4
:1002B00090E081E080930201892F0895FF920F93CF
:1002C0001F93CF93DF9300D0CDB7DEB710927A01A2
:1002D00080EA96E8A1E0B0E0809375019093760102
:1002E000A0937701B093780164E271E080910201FC
:1002F0000E947D0B8091750190917601A09177010C
:10030000B0917801892B8A2B8B2B31F044E251E09C
:1003100060E08AE20E949D0B8091750190917601C8
:10032000A0917701B0917801892B8A2B8B2B31F02A
:1003300044E251E060E089E40E949D0B80917501E8
:1003400090917601A0917701B0917801892B8A2B49
:100350008B2B31F044E251E060E084E40E949D0B7D
:100360008091750190917601A0917701B09178010B
:10037000892B8A2B8B2B31F044E251E060E08EE434
:100380000E949D0B8091750190917601A09177015B
:10039000B0917801892B8A2B8B2B31F044E251E00C
:1003A00060E08FE30E949D0B809175019091760132
:1003B000A0917701B0917801892B8A2B8B2B31F09A
:1003C00044E251E061E08AE00E949D0B84E291E00A
:1003D0000E944D0B8091750190917601A09177015B
:1003E000B0917801892B8A2B8B2B09F471C180EA9B
:1003F00096E8A1E0B0E08093750190937601A09318
:100400007701B093780164E271E0809102010E946B
:10041000610BF12C10E044E251E0BE016F5F7F4FB1
:10042000CE0102960E94BF0A01E0F11003C08C3297
:1004300009F000E0F02E982F9F7E9A3261F09F32F3
:1004400051F08C3541F0982F9D7F903221F08C3205
:1004500011F0863209F48FE590EE980F9F3550F435
:10046000E12FF0E0EE0FFF1FE458FE4F90E0918384
:1004700080831F5F123350F48981811107C08A8104
:10048000882349F203C0123060F01150E12FF0E0F0
:10049000EE0FFF1FE658FE4F808191818F35910549
:1004A00091F381E0810F880F80937A0184E291E0DB
:1004B0000E944D0B8091750190917601A09177017A
:1004C000B0917801892B8A2B8B2B11F0111104C16B
:1004D00080EA96E8A1E0B0E0809375019093760100
:1004E000A0937701B093780164E271E080910201FA
:1004F0000E947D0B8091750190917601A09177010A
:10050000B0917801892B8A2B8B2B31F044E251E09A
:1005100060E089E40E949D0B8091750190917601C5
:10052000A0917701B0917801892B8A2B8B2B31F028
:1005300044E251E060E084E40E949D0B80917501EB
:1005400090917601A0917701B0917801892B8A2B47
:100550008B2B31F044E251E060E08FE30E949D0B71
:100560008091750190917601A0917701B091780109
:10057000892B8A2B8B2B31F044E251E061E08AE039
:100580000E949D0B84E291E00E944D0B80917501C9
:1005900090917601A0917701B0917801892B8A2BF7
:1005A0008B2B09F493C080EA96E8A1E0B0E0809339
:1005B000750190937601A0937701B093780164E27E
:1005C00071E0809102010E94610B10E044E251E071
:1005D000BE016F5F7F4FCE010296D1D701E0F110CF
:1005E00003C08C3209F000E0F02E982F9F7E9A32E3
:1005F00061F09F3251F08C3541F0982F9D7F903201
:1006000021F08C3211F0863209F48FE590EE980FCC
:100610009F3558F4E12FF0E0EE0FFF1FE458FE4F36
:10062000282F30E0318320831F5F123370F49981CB
:1006300091110BC09A81911108C08D3031F08A3030
:1006400029F603C0123060F01150E12FF0E0EE0FF8
:10065000FF1FE658FE4F808191818F35910591F300
:1006600081E0810F880F80937A0184E291E00E94FB
:100670004D0B011118C088E490E090937D018093A8
:100680007C0180E590E090937F0180937E01209132
:100690008001309181012053310981E02A303105F8
:1006A00018F080E001C081E0409175015091760121
:1006B0006091770170917801452B462B472B41F0D3
:1006C000112331F0882321F011E009C0002399F2B1
:1006D00081E03DDD10E003C0002369F2F5CF80E04A
:1006E00066D62FEF81EE94E0215080409040E1F7F4
:1006F00000C0000081E05BD6812F0F900F90DF914A
:10070000CF911F910F91FF9008951F93CF93DF9387
:10071000EC01162FF999FECFCE010E9435118117F9
:1007200049F0F999FECF612FCE01DF91CF911F9152
:100730000C943D11DF91CF911F91089584B7877F6D
:1007400084BF0FB6F894A89580916000886180936B
:100750006000109260000FBE90E080E80FB6F89441
:1007600080936100909361000FBE0E94A10EE0EEA5
:10077000F0E080818160808380E0E9DC559A5D9AB9
:1007800008950895089542E361EC81E00E94DA0D36
:1007900042E361E882E00E94DA0D42E360E883E030
:1007A0000C94DA0DCF938091E9019091EA010097C2
:1007B00029F48091E50180FD0BC07AC18238910552
:1007C00019F0039709F074C18091E50181FF70C1B0
:1007D0008091E601863009F4FCC090F4833009F47E
:1007E0008CC038F4813009F459C0823009F479C0E2
:1007F0005FC1843009F4A8C0853009F4D5C058C160
:10080000803871F118F5873009F405C1803409F09A
:100810004FC18091E800877F8093E800C1E0C093DA
:10082000F1008091E8008E778093E8000E940F0E1F
:100830005D982FEF84E39CE0215080409040E1F7E9
:1008400000C000005D9AC093260132C1813A09F4CC
:100850000EC1823A09F4FBC0803A09F029C1F0C008
:10086000C091E70180E593ECA0E0B0E080937501D2
:1008700090937601A0937701B093780164E271E0E0
:1008800080910201C9D69091E800977F9093E8008B
:1008900091E09093F100C093F10000C19091E501C7
:1008A000923A09F005C190916C0191110EC020910E
:1008B000690130E04091E7015091E8014217530788
:1008C00031F480936C0181E003C083E801C081E8CA
:1008D00091E090936A019091E800977F9093E800EF
:1008E000DDC08091E501823A09F0E2C080916C019F
:1008F0008130D9F580916A0132C09091E501923A38
:1009000009F0D6C090916C0191110EC0209169013F
:1009100030E04091E7015091E8014217530731F46C
:1009200080936C0181E003C083E801C081E891E01D
:1009300090936B019091E800977F9093E8008093EB
:10094000F10080916901AAC08091E501823A09F025
:10095000AFC080916C01833041F480916B018111B3
:1009600006C010926C0181E003C082E801C082E001
:100970009091E800977F9093E8008093F1001092A7
:10098000F1001092F10080916701909168018093CD
:10099000F100A0E0B0E0892F9A2FAB2FBB27809306
:1009A000F1001092F10034C09091E501913A09F004
:1009B0007FC090916C01992321F083E88093F1002E
:1009C00067C091E090936B0190936A0180936C01F2
:1009D0005FC08091E501813A09F06AC080916C01A5
:1009E000853061F480916B0181110AC080916A01A8
:1009F000811106C010926C0181E003C082E801C041
:100A000082E09091E800977F9093E8008093F10056
:100A10001092F10045C08091E501813A09F048C08B
:100A20008091E800877F8093E80068E170E083E0D0
:100A300091E088D78091E8008B778093E80038C0F8
:100A40008091E701813009F080E0B1D421C080E5D8
:100A500093ECA0E0B0E08093750190937601A093B1
:100A60007701B093780184E291E07ED511C080E5F2
:100A700093ECA0E0B0E08093750190937601A09391
:100A80007701B093780164E271E08091020158D55A
:100A90008091E800877F8093E80081E08093F100F7
:100AA0008091E8008E778093E800CF910C940F0E30
:100AB000CF9108950F931F93CF93DF93EC0189811A
:100AC000B0DB182F8A81ADDB90E1199F800D1124D6
:100AD000182F8B81A6DB082F8C81A3DB682F90E178
:100AE000099F600D1124112319F0113041F021C02C
:100AF00088E690E0DF91CF911F910F9106CE613093
:100B000041F0623061F46DE089E690E0FEDD8DE059
:100B10000BC06AE089E690E0F8DD8AE005C060E09D
:100B200089E690E0F2DD80E0DF91CF911F910F9197
:100B30000AC6DF91CF911F910F910895CF92DF9256
:100B4000EF92FF920F931F93CF93DF937C01C62FF9
:100B5000D42ED22F442349F080912601882329F0F6
:100B600081E0F7019081913209F080E080FF04C0BC
:100B70006C2FC7019FDF24C081E019D45D98DD2070
:100B800029F0B80180910201B8D501C080E0CD2ED6
:100B9000CC2379F0811113C0C150F70181917F01FD
:100BA000C11102C06C2D01C060E06170A801C5D503
:100BB000EFCFDD2321F0811102C0C8016ED55D9A0F
:100BC00010922601DF91CF911F910F91FF90EF902E
:100BD000DF90CF9008956F927F928F929F92AF9205
:100BE000BF92CF92DF92FF920F931F93CF93DF9329
:100BF00000D0CDB7DEB75C01F62E742E4901680136
:100C000081E0D5D35D981982772029F0B8018091D1
:100C1000020157D589831A8287E2682E81E0782EF7
:100C200010E09A818981911113C0F116B1F0811100
:100C300018C0A601BE016F5F7F4FCE0102969FD400
:100C400099819111EECF1F5FF30181933F01E9CFAD
:100C5000811107C0C60121D5F12E8981882321F099
:100C60001F2D81E08A83F12E8A81F40180834F2D2C
:100C700050E067E271E0C5010E942C115D9A8F2D52
:100C80000F900F90DF91CF911F910F91FF90DF9008
:100C9000CF90BF90AF909F908F907F906F9008956E
:100CA00081E0809301018093000110922201109253
:100CB000230110922401109225017FC30F931F93EB
:100CC000CF93DF9300D0CDB7DEB723E02093E900C8
:100CD0002091E80022FF1CC08C011A821982AE010B
:100CE0004F5F5F4F6CE070E0C801E3D5982F8091B3
:100CF0006A01953011F4882391F3F8012181209342
:100D00006901811102C081E0911180E0817001C010
:100D100080E00F900F90DF91CF911F910F91089578
:100D20000F931F93CF93DF9300D0CDB7DEB78C0125
:100D300080916901F80181838095828382E08093AC
:100D4000E9001A821982AE014F5F5F4F6CE070E0DC
:100D5000C80166D590916B01853011F4992399F300
:100D6000911105C091E0811190E0892F01C080E0D0
:100D700081700F900F90DF91CF911F910F91089587
:100D8000BF92CF92DF92EF92FF920F931F93CF9378
:100D9000DF93CDB7DEB7CD58D1090FB6F894DEBFDB
:100DA0000FBECDBF8091E401843009F09DC18091D8
:100DB000220190912301A0912401B0912501892B5A
:100DC0008A2B8B2B09F020C1CE018F579F4F76DFE6
:100DD000882309F47DC180911C0190911D01019629
:100DE00090931D0180931C01CF57DF4F8881C1581C
:100DF000D040823009F49EC0803821F0813009F063
:100E0000FDC017C080E593ECA0E0B0E080937501D1
:100E100090937601A0937701B093780164E271E03A
:100E20008091020178D38091E8008B778093E8006D
:100E30004FC1CB57DF4F3881C558D040CA57DF4F1D
:100E40002881C658D040C957DF4F9881C758D04035
:100E5000C857DF4F8881C858D04030932201209373
:100E60002301909324018093250110926801109230
:100E70006701C32ED22EE92EF82E85E3C816D104C1
:100E8000E104F10428F094E3C92ED12CE12CF12CDB
:100E9000BC2C47E651E0B601CE0101960AD585305B
:100EA00021F480916A018823A1F38091220190911D
:100EB0002301A0912401B09125018C199D09AE094F
:100EC000BF098093220190932301A0932401B09342
:100ED0002501C757DF4F2881C958D04031E0211183
:100EE00001C030E030937901222329F021E0892BE1
:100EF0008A2B8B2B09F020E02170C357DF4F28830A
:100F0000CD58D04003E411E0409101016B2DCE019A
:100F1000019614DE83E08093E9008091E8008B77EE
:100F20008093E800C357DF4F8881CD58D04080932D
:100F30000101CEC08091E8008B778093E800CB5709
:100F4000DF4F688179818A819B81C558D0406433A5
:100F500071058105910520F063E370E080E090E089
:100F60000BE411E09E0123573F4F40910001CE0159
:100F7000019631DE90E0A0E0B0E0CB57DF4F8883F0
:100F80009983AA83BB83C558D040C357DF4F88815C
:100F9000CD58D04080930001C757DF4F8883C95890
:100FA000D04080916B01811104C0CE018F579F4FBB
:100FB000B7DE109268011092670180916B0188235F
:100FC00079F082E08093E9008091E8008E77809349
:100FD000E80080916B01882309F47AC061DE78C053
:100FE000CB57DF4F68817981C558D04047E651E043
:100FF000CE01019615D4853001F3E3CF8091EB004B
:1010000080628093EB0064C083E08093E90080916C
:10101000E80082FF5DC01092680110926701809124
:10102000220190912301A0912401B09125018034E7
:101030009105A105B10510F4F82E02C080E4F82E48
:10104000CF2CD12C47E651E0B601CE01019631D428
:10105000853021F480916A018823A1F380912201D7
:1010600090912301A0912401B09125018F1991093C
:10107000A109B1098093220190932301A093240137
:10108000B09325018091E8008B778093E8008091F0
:101090007901882369F021E0809122019091230158
:1010A000A0912401B0912501892B8A2B8B2B09F06B
:1010B00020E02170C357DF4F2883CD58D0402093C4
:1010C000010103E411E040E06F2DCE01019636DD11
:1010D00080916A01811103C080916B018111E0DD73
:1010E00010926B0110926A01C357DF4F0FB6F8944C
:1010F000DEBF0FBECDBFDF91CF911F910F91FF904B
:10110000EF90DF90CF90BF90089514BE0FB6F89483
:10111000A8958091600088618093600010926000C3
:101120000FBE0CDB5ED1F999FECF89E690E00E94FC
:10113000351109D3789434D1811115C02FEF84E390
:101140009CE0215080409040E1F700C000005D9A93
:10115000EFEFF4E32CE0E150F0402040E1F700C075
:1011600000005D98E8CF9FD881112CC08FEF91EEE1
:10117000E4E081509040E040E1F700C000005D9A5B
:10118000FFEF21EE84E0F15020408040E1F700C005
:1011900000005D9805D18111E6CF5D989FEFE9E6EB
:1011A000F8E19150E040F040E1F700C000009CE021
:1011B00088E10FB6F894A895809360000FBE9093D5
:1011C0006000FFCFF999FECF88E690E00E943511CC
:1011D000813081F1F999FECF80E090E00E943511D5
:1011E000C82F6CD8882399F06091020180E090E0CC
:1011F0008CDA0AE711E0C0E0D0E0F80161918F01DC
:101200002196CE0182DAC636D105B9F723C0809186
:101210000201C8131FC00AE711E0C1E0D0E0CE010F
:101220000E943511F80181938F012196C736D105AF
:10123000B1F710C081E00E94A70080E0B8D0FFEFB6
:1012400021EE84E0F15020408040E1F700C0000032
:1012500081E0ADD05D9A8091E0008E7F8093E000C8
:101260008FDD9ED081111AC05D988091E000816071
:101270008093E0009FEFE9E6F8E19150E040F04014
:10128000E1F700C000009CE088E10FB6F894A89553
:10129000809360000FBE90936000FFCFB7D7E0CF80
:1012A000F9011082692F77276230710559F0633098
:1012B000710569F06130710549F582E190E021E046
:1012C00031E028C087E290E02AED30E023C0992782
:1012D0008130910591F070F08230910589F003978B
:1012E000A9F480917A0190E062E0F90160832AE735
:1012F00031E010C0E6EDF0E005C0EEEBF0E002C03A
:10130000ECEAF0E0849190E09F0104C080E090E07E
:1013100020E030E0FA0131832083089585E38A9547
:10132000F1F7000080916D0190916E01009739F006
:10133000019790936E0180936D0180E0089581E0A4
:1013400008951F920F920FB60F9211248F938091E0
:1013500073018F5F809373018630E0F08091740198
:101360008F5F8093740110927301809170018111DD
:1013700011C049990AC080917101823011F481E055
:1013800007C08F5F8093710105C01092710182E0E8
:10139000809372018F910F900FBE0F901F90189540
:1013A00081E090917201923009F080E008958823E5
:1013B00011F03E9A08953E980895549A2FEF81EEC9
:1013C00094E0215080409040E1F700C00000549824
:1013D0008FE39CE90197F1F700C0000010927001C3
:1013E00008958AB18E778AB98BB18E778BB984B123
:1013F000817884B985B1817885B946983E988BB15A
:101400008D7E8BB98AB18D7E8AB981B38F7081BB95
:1014100080B38F7080BB3E9A109270011092710160
:10142000CCDF85E085BDEEE6F0E0808181608083E1
:10143000109273011092740108950F931F93CF932C
:101440008A01869885988498662311F0519A01C084
:1014500051989AB19E77282F2178922B9AB994B1FE
:1014600091788E77892B84B985E08A95F1F7000011
:10147000F8010995C82F7D9903C08823C9F30BC0D3
:10148000811109C0869AF8010995C82F7C9902C07C
:101490008823C9F386988AB18E778AB984B1817816
:1014A00084B95198C1119DDF8C2FCF911F910F915D
:1014B00008950F931F93CF93C82F8B018F71AB01AA
:1014C00061E08064BADFC07E39F0A80161E080E6A7
:1014D000CF911F910F91B1CFCF911F910F9108958F
:1014E0000F931F93CF93C82F8B018F71AB0161E0D6
:1014F0008062A3DFC07E39F0A80161E080E6CF9171
:101500001F910F919ACFCF911F910F910895AC0128
:1015100061E08FE392CFCF93DF93EB01E1DF8111A5
:101520000AC0AE0161E088E088DF811104C0CE010D
:10153000EEDF882311F055DF81E0DF91CF91089530
:10154000CF93DF93EB01CCDF811109C0AE0161E0E5
:1015500081E073DF811103C0CE01D9DF811141DF4A
:1015600080E0DF91CF910895CF93AC0161E081E1FC
:1015700064DFC82F811135DF8C2FCF910895BF9282
:10158000CF92DF92EF92FF920F931F93CF93DF934F
:101590008C016B017A01849A8598F7010995B82E20
:1015A0007E9B03C08823C9F317C0811115C0859A9B
:1015B000C9B183B1C1788E77C82BC095DFB1D09502
:1015C000DD1FDD27DD1F8498F7010995B82E7E9970
:1015D00005C08823C9F302C0D0E0C0E090916F013C
:1015E000911103C0F801D08308C081E0D11102C07D
:1015F000C91380E08170F8018083B110F2DEF6013A
:10160000B0828C2FDF91CF911F910F91FF90EF90BF
:10161000DF90CF90BF900895FF920F931F93CF93C9
:10162000DF9300D0CDB7DEB7F82E8B011A82AB0165
:1016300061E088E102DF8A83811104C0B8018F2D47
:1016400038DF8A835198849A8A81811109C0A80160
:10165000BE016E5F7F4FCE01019691DFF82E01C073
:10166000F12C8A81811105C0A80161E08FE5E5DEDA
:101670008A838A81811105C0A80161E089E1DDDEEC
:101680008A838A818111ADDE8F2D0F900F90DF91BB
:10169000CF911F910F91FF900895CF93DF93EC01AD
:1016A00036DF882319F09DDE81E006C0AE0161E0DF
:1016B0008FE5C3DE8111F7CF10927001DF91CF91DA
:1016C00008950F931F93CF93DF93D82F8B0181E061
:1016D00080937001CB011BDFC82F811104C0B801BA
:1016E0008D2FE7DEC82F5198849AC1117ADE8C2F96
:1016F000DF91CF911F910F9108951F93CF93DF93A7
:10170000182FEB0181E080937001AB0161E08FE560
:1017100094DE882311F0C1E008C0CE01F8DE81110B
:10172000FACFBE01812FDCDEC82F5198C11159DEDE
:101730008C2FDF91CF911F9108956111879A60E0FE
:101740007CDE879808958A3011F08D3019F48093EB
:101750006F01089510926F010895EF92FF921F9309
:10176000CF93DF9384EF91E090936E0180936D01AE
:101770004EE859E061E08FE360DECFEF84EFE82EC2
:10178000FF24F394CF5F1C2F1F711F3109F43CC05D
:10179000F0926E01E0926D016EE879E08C2FA0DE90
:1017A00051988FE39FE10197F1F700C000007C9909
:1017B0002BC0499B29C0DC2F84EF91E090936E01F0
:1017C00080936D014EE859E061E08FE336DEC03270
:1017D00000F16EE879E0812F83DE51988FE39FE17D
:1017E0000197F1F700C000007C9902C04999D12F00
:1017F00084EF91E090936E0180936D014EE859E083
:1018000061E08FE31ADE05C0CF3309F0BBCFDFEF15
:10181000D3CF8D2FDF91CF911F91FF90EF9008953F
:10182000CF92DF92EF92FF920F931F93CF93DF93AC
:10183000EC018B017A0112D2811132C0E114F10462
:1018400039F0F70180819181081B190BC80FD91F4E
:10185000C12CD12C0115110511F18091E80085FDF5
:1018600015C08091E8008E778093E800E114F104C0
:1018700049F0F70180819181C80ED91ED182C082C2
:1018800085E00EC0EBD1882329F30AC089918093AB
:10189000F10001501109FFEFCF1ADF0ADBCF80E022
:1018A000DF91CF911F910F91FF90EF90DF90CF903C
:1018B0000895CF92DF92EF92FF920F931F93CF93F1
:1018C000DF93EC018B017A01C9D1811132C0E1149F
:1018D000F10439F0F70180819181081B190BC80FC1
:1018E000D91FC12CD12C0115110511F18091E800EF
:1018F00085FD15C08091E8008B778093E800E114A6
:10190000F10449F0F70180819181C80ED91ED1827E
:10191000C08285E00EC0A2D1882329F30AC080913D
:10192000F100899301501109FFEFCF1ADF0ADBCFD5
:1019300080E0DF91CF911F910F91FF90EF90DF90AA
:10194000CF9008952091EB013091EC0126173707D5
:1019500048F06115710539F42091E8002E77209345
:10196000E80001C0B901FC0120E06115710579F1C1
:101970008091E4018823F1F18530F1F18091E80054
:1019800083FD3CC08091E80082FD2EC08091E8007C
:1019900080FFEBCF2091F3008091F20090E0922B3A
:1019A0006115710551F08830910538F4219120932B
:1019B000F100615071090196F3CF21E0089709F019
:1019C00020E08091E8008E778093E800CECF21114F
:1019D000CFCF0AC08091E401882361F0853061F0A7
:1019E0008091E80083FD0AC08091E80082FFF2CF79
:1019F00080E0089582E0089583E0089581E00895ED
:101A00002091EB013091EC012617370748F0611562
:101A1000710539F42091E8002E772093E80001C089
:101A2000B901FC0120E06115710591F18091E4019B
:101A3000882309F440C0853009F43FC08091E80054
:101A400083FD3DC08091E80082FD2FC08091E800B9
:101A500080FFE9CF2091F3008091F20090E0922B7B
:101A60006115710559F08830910540F42491209357
:101A7000F1003196615071090196F2CF21E008978B
:101A800009F020E08091E8008E778093E800CBCFCA
:101A90002111CCCF0AC08091E401882361F0853008
:101AA00061F08091E80083FD0AC08091E80082FF28
:101AB000F2CF80E0089582E0089583E0089581E008
:101AC0000895CF92DF92EF92FF920F931F93CF93DF
:101AD000DF93EB012091EB013091EC0126173707E2
:101AE00040F0209739F42091E8002E772093E80009
:101AF00001C0E9016C0120E02097D9F18091E40157
:101B0000882309F449C0853009F448C08091E80071
:101B100083FD46C08091E80082FD38C08091E800D6
:101B200080FFEACF8091F3000091F20010E0182BC3
:101B30007801C701801B910B8C0D9D1D209761F0D2
:101B400038E0E316F10440F490D38093F10021973C
:101B50002FEFE21AF20AEDCF21E038E0E316F104AC
:101B600009F020E03091E8003E773093E8006C0106
:101B7000C3CF2111C3CF0AC08091E401882361F053
:101B8000853061F08091E80083FD0AC08091E80013
:101B900082FFF2CF80E005C082E003C083E001C095
:101BA00081E0DF91CF911F910F91FF90EF90DF9037
:101BB000CF900895982F973068F59093E900981783
:101BC00039F07091EC002091ED005091F00003C0CD
:101BD000242F762F50E021FD02C09F5FECCF309183
:101BE000EB003E7F3093EB003091ED003D7F309372
:101BF000ED003091EB0031603093EB007093EC001E
:101C00002093ED005093F0002091EE0027FDE5CFEA
:101C100080E008958F708093E90081E008958091BD
:101C2000E50187FF11C08091E80082FD05C0809129
:101C3000E4018111F8CF11C08091E8008B770BC0CF
:101C40008091E401882349F08091E80080FFF8CF7B
:101C50008091E8008E778093E80008952091E40059
:101C60003091E50095E64091EC00842F817040FFB3
:101C700023C08091E80080FD1DC08091E40188238D
:101C800099F0853099F08091EB0085FD11C040916D
:101C9000E4005091E5002417350729F3915011F025
:101CA0009A01E1CF84E0089582E0089583E00895E9
:101CB00081E0089580E008954091E80042FFDDCF83
:101CC00008950F931F93CF93DF934BD052D0C8ED5D
:101CD000D0E088818F778883888180688883888135
:101CE0008F7D888319BC1092E4011092E00110925C
:101CF000E2011092E10100EE10E0F80180818B7F9B
:101D0000808388818160888342E060E080E052DFE8
:101D1000E1EEF0E080818E7F8083E2EEF0E0808172
:101D200081608083808188608083F80180818E7FDC
:101D30008083888180618883DF91CF911F910F918B
:101D40000895E8EDF0E080818F7E8083E7EDF0E09C
:101D500080818160808384E082BF81E08093E301A1
:101D6000B0CFE8EDF0E080818E7F80831092E200BA
:101D700008951092DA001092E10008951F920F92D8
:101D80000FB60F9211242F933F934F935F936F934E
:101D90007F938F939F93AF93BF93EF93FF93809124
:101DA000E10082FF0AC08091E20082FF06C08091BC
:101DB000E1008B7F8093E10028D28091DA0080FFE0
:101DC0001FC08091D80080FF1BC08091DA008E7FF9
:101DD0008093DA008091D90080FF0DC080E189BD39
:101DE00082E189BD09B400FEFDCF81E08093E4016A
:101DF0000E94C10305C019BC1092E4010E94C203F5
:101E00008091E10080FF18C08091E20080FF14C043
:101E10008091E2008E7F8093E2008091E2008061F9
:101E20008093E2008091D80080628093D80019BC32
:101E300085E08093E401E9D18091E10084FF2FC027
:101E40008091E20084FF2BC080E189BD82E189BDE1
:101E500009B400FEFDCF8091D8008F7D8093D8001B
:101E60008091E1008F7E8093E1008091E2008F7E7F
:101E70008093E2008091E20081608093E200809193
:101E8000E001882311F084E007C08091E30087FD22
:101E900002C081E001C083E08093E401B6D180916B
:101EA000E10083FF27C08091E20083FF23C080917F
:101EB000E100877F8093E10082E08093E40110924B
:101EC000E0018091E1008E7F8093E1008091E2004B
:101ED0008E7F8093E2008091E20080618093E20037
:101EE00042E060E080E066DE8091F00088608093F0
:101EF000F0008BD1FF91EF91BF91AF919F918F91A6
:101F00007F916F915F914F913F912F910F900FBEF5
:101F10000F901F9018951F920F920FB60F921124D9
:101F20002F933F934F935F936F937F938F939F93E1
:101F3000AF93BF93CF93DF93EF93FF93C091E900EB
:101F4000CF708091EC00D82FD17080FDD0E8109236
:101F5000E9008091F000877F8093F00078941ED094
:101F60001092E9008091F00088608093F000CD2B02
:101F7000CF70C093E900FF91EF91DF91CF91BF91B6
:101F8000AF919F918F917F916F915F914F913F9111
:101F90002F910F900FBE0F901F9018951F93CF9306
:101FA000DF9300D01F92CDB7DEB7E5EEF1E08DEE06
:101FB00091E02091F10021938E179F07D1F70E94A5
:101FC000D2038091E80083FF0BC18091E5019091DD
:101FD000E601953009F483C030F49130A9F168F03E
:101FE000933091F1FDC0983009F4C9C0993009F4DB
:101FF000D5C0963009F0F4C094C0803821F0823802
:1020000009F0EEC008C08091E1019091E2019923AE
:1020100089F082600FC08091E9018F70873008F0ED
:10202000DFC08093E9008091EB0085FB882780F971
:102030001092E9009091E800977F9093E8008093D8
:10204000F1001092F100A6C0282F2D7F09F0C8C022
:10205000882319F0823061F0C3C08091E70181309C
:1020600009F0BEC0933009F080E08093E2012EC0F9
:102070008091E70181112AC08091E9018F702FEFD3
:10208000280F263008F0ACC08093E9002091EB00C7
:1020900020FF1CC0933021F48091EB00806214C0BB
:1020A0009091EB0090619093EB0021E030E0A9016A
:1020B00002C0440F551F8A95E2F74093EA00109240
:1020C000EA008091EB0088608093EB001092E900B9
:1020D0008091E800877F8093E800A1DD81C08111B5
:1020E0007FC01091E7011F778091E3008078812BFA
:1020F0008093E3008091E800877F8093E8008FDD84
:102100008091E80080FFFCCF8091E300806880939D
:10211000E300111102C082E001C083E08093E4017A
:102120005FC08058823008F05BC06091E901709117
:10213000EA019E012D5F3F4FAE014F5F5F4F8091DF
:10214000E7019091E801ACD8BC01892B09F448C0A3
:102150008091E800877F8093E8002B8189819A81B4
:10216000211102C04DDC05C0213011F4AADC01C0F0
:10217000E9DB8091E8008B778093E80031C08038FC
:1021800079F58091E800877F8093E8008091E001F5
:102190008093F1008091E8008E779DCF811120C05F
:1021A0008091E7019091E80199270297CCF4809102
:1021B000E800877F8093E8008091E7018093E00149
:1021C0002EDD8091E001811106C08091E30087FD42
:1021D00002C081E001C084E08093E4010E94C30357
:1021E0008091E80083FF0AC08091E800877F809398
:1021F000E8008091EB0080628093EB000F900F90DD
:102200000F90DF91CF911F9108950895CF93809102
:10221000E401882399F0C091E900CF709091EC001F
:10222000892F817090FD80E8C82B1092E900809181
:10223000E80083FDB3DECF70C093E900CF9108952D
:10224000991B79E004C0991F961708F0961B881F08
:102250007A95C9F780950895FB01DC0102C00190D1
:102260000D9241505040D8F70895F999FECF92BD94
:1022700081BDF89A992780B50895262FF999FECF48
:102280001FBA92BD81BD20BD0FB6F894FA9AF99A93
:0A2290000FBE01960895F894FFCFE9
:10229A00010101010000010400000000000000002B
:0C22AA0001030300000000000000000021
:00000001FF
